:020000040800F2
:100000002811002005030008ED530008114F0008D7
:10001000E953000859050008B16B000817030008F0
:10002000000000000000000000000000DD55000896
:100030005D05000800000000F153000801570008AA
:100040002103000821030008210300082103000800
:1000500021030008210300082103000821030008F0
:1000600021030008210300082103000821030008E0
:1000700021030008210300082103000821030008D0
:1000800021030008210300082103000821030008C0
:10009000210300082103000821030008610500086E
:1000A00021030008210300082103000821030008A0
:1000B00000000000710500087D050008210300080C
:1000C0002103000821030008210300082103000880
:1000D0002103000821030008210300082103000870
:1000E0002103000821030008210300082103000860
:1000F0002103000821030008210300082103000850
:10010000210300082103000821030008210300083F
:10011000210300082103000821030008210300082F
:10012000210300082103000821030008210300081F
:1001300021030008516B000821030008816B0008AF
:1001400021030008210300082103000821030008FF
:1001500021030008210300082103000821030008EF
:1001600021030008210300082103000821030008DF
:1001700021030008210300082103000821030008CF
:1001800021030008210300082103000821030008BF
:1001900021030008210300082103000821030008AF
:1001A000210300082103000821030008210300089F
:1001B00021030008000000002103000821030008BB
:1001C00021030008000000002103000821030008AB
:1001D000210300082103000821030008210300086F
:1001E000210300082103000821030008210300085F
:1001F00000000000000000002103000821030008A7
:10020000210300082103000821030008210300083E
:10021000210300082103000821030008210300082E
:10022000210300082103000821030008210300081E
:10023000210300082103000800F002F800F052F842
:1002400014A696E8000CB244B344DA4501D100F09C
:1002500049F8BAE80F000FA696E83000A5EB0405B0
:1002600004EB0607AAEB0704A7F101074FEA1515EF
:100270004FEA3414A4F10104AC4201D300F032F887
:1002800013F0010F18BFFB1A43F0010300F001F84F
:10029000DBE71847C8700000E8700000103A24BF80
:1002A00078C878C1FAD8520724BF30C830C144BFDB
:1002B00004680C60704700007047000000230024B1
:1002C00000250026103A28BF78C1FBD8520728BF66
:1002D00030C148BF0B6070471FB506F0B1FF1FBDAE
:1002E00010B510BD00F0FEF81146FFF7F5FF06F05F
:1002F00061FC00F01CF903B4FFF7F2FF03BC00F04F
:1003000023F900000A4880470A480047FEE7FEE755
:10031000FEE7FEE7FEE7FEE7FEE7FEE7FEE7FEE7B5
:10032000FEE7000004480549054A064B70470000F7
:100330000557000839020008280B0020281100206A
:10034000280D0020280D002053EA020C00F06980DF
:100350002DE9F04B4FF00006002B1FBFB3FA83F5D9
:1003600003FA05F424FA05F65E4012BF1643B2FA0A
:1003700082F502FA05F4C5F120051EBF22FA05FC3C
:1003800044EA0C04203556EA044C4FEA144418BFE2
:10039000641C4FF000084FF00009904271EB030C11
:1003A00039D3002919BFB1FA81F701FA07F6B0FA7B
:1003B00080F700FA07F6C7F120071EBF20FA07FCF6
:1003C00046EA0C062037B6FBF4FCA7EB0507103F06
:1003D00007F01F0BCBF120062CFA06F60CFA0BFBEC
:1003E00044BFB3460026202FA4BF5E464FF0000B4B
:1003F0005BEA060C08BF4FF0010B19EB0B0948EB49
:100400000608ABFB027C06FB02CC0BFB03CCC01B3B
:1004100071EB0C01C1E70B46024641464846BDE878
:10042000F08B13B5084318BF4FF0FF300146AFF310
:100430000080BDE81C40704740EA010310B59B07EF
:100440000FD1042A0DD310C808C9121F9C42F8D03E
:1004500020BA19BA884201D9012010BD4FF0FF30EF
:1004600010BD1AB1D30703D0521C07E0002010BD05
:1004700010F8013B11F8014B1B1B07D110F8013B91
:1004800011F8014B1B1B01D1921EF1D1184610BD72
:100490004FF0000200B5134694469646203922BF1D
:1004A000A0E80C50A0E80C50B1F12001BFF4F7AF68
:1004B000090728BFA0E80C5048BF0CC05DF804EB4A
:1004C000890028BF40F8042B08BF704748BF20F8B8
:1004D000022B11F0804F18BF00F8012B70477047B6
:1004E00070477047754600F02BF8AE460500694628
:1004F000534620F00700854618B020B5FFF712FFDD
:10050000BDE820404FF000064FF000074FF0000814
:100510004FF0000BAC46ACE8C009ACE8C009ACE851
:10052000C009ACE8C00921F007018D46704710B53D
:100530000446AFF300802046BDE81040FFF7DBBE65
:10054000004870471000002001491820ABBEFEE7AC
:100550002600020070470000FEE700007047000020
:100560004FF4805000F006BD72B600BFFEE70000F9
:1005700040F67000C2F2000000F0F0B840F6E8006B
:10058000C2F2000000F0EAB8002804BF0120704762
:1005900080B5D0F874E0BEF1000F54D090F854103C
:1005A00002680129D2F814C004D0022946D11CF4F3
:1005B000803143D090F85410012935D190F84C1077
:1005C00001294FF0020134D0012380F84C3080F82B
:1005D00054108EF80C1000218165CEF8101051696E
:1005E00041F4BA415161416E19B1516941F4007150
:1005F0005161006F18B1506940F400505061DEF84D
:1006000000000023016ACFF60103490861F3596332
:1006100061F39A634FF6FF7120EA010111604FF612
:10062000FC7108401844D0675069002140F0010077
:100630005061BDE880400846704700BF4021816599
:10064000002180F84C100121BDE880400846704729
:10065000B0B5044600F0D0FD002C04BF0120B0BDB1
:10066000054694F85400022824D12068416941F0DD
:1006700004014161052084F8540000BF2168086925
:1006800080041FD400F0B8FD401B0628F6D3A06DEF
:1006900040F01000A065032084F8540094F8500046
:1006A00000064FF0010001D5616F0873002184F846
:1006B0004C10B0BD2020A0650120002184F84C1012
:1006C000B0BD00BF4869012240F00200486104202B
:1006D00084F854004FF4FE40C86084F8542094F825
:1006E000500000064FF00000E0D5636F1A73886475
:1006F000002184F84C10B0BD80B190F8541002294C
:100700000AD1042180F85410006842F204024169C1
:10071000114341610020704720218165012070470D
:10072000024600284FF0010008BF7047CB0612D5E3
:10073000136840F6FF7223EA020203F57B63C3F3FA
:10074000C41301F0110198401129516814BF21EA26
:1007500000000843506000207047000010B5046896
:100760000C23214604F57B6263F30B01C2F3C41230
:100770000968D140C9074BD02169490544BF616967
:100780005FEA415146D42169090544BF61695FEAC6
:10079000015147D42169C90444BF61695FEAC1417D
:1007A00048D42169490444BF61695FEA414149D4A1
:1007B0002169890544BF61695FEA81514AD4216991
:1007C000890444BF61695FEA81414FD42169C90549
:1007D00044BF61695FEAC15164D4816DC1B10168F0
:1007E0004A6942F002024A61012180F8541090F8EF
:1007F0005020120644BF426F1173816E00220029FF
:1008000080F84C2008BF10BDBDE81040084700BF6D
:1008100010BD00BF4FF48061E160816D41F00101C6
:100820008165B0E74FF40061E160816D41F0020144
:100830008165AFE74FF48051E160816D41F00401C3
:100840008165AEE74FF48041E160816D41F00801C0
:100850008165ADE74FF40071E160426E002AAED0D1
:100860000446904720462468A9E700BF4FF4005192
:10087000E16090F8541004291ED16169012221F42D
:1008800000516161616941F00201616180F85420A9
:1008900090F85010090603D5416F0A730021A16436
:1008A000C16EABE790F85010090611D4A16CD9B90C
:1008B00000F1540216E000BF052180F85410026FC9
:1008C000002A3FF483AF04469047204624687DE722
:1008D000E16F49B9A16C39B9012180F85410416F19
:1008E00001F10C02012111704FF44071E160016EC1
:1008F0000022002980F84C203FF46FAF044688475F
:1009000020466AE7B0B5044600F076FC002C04BF30
:100910000120B0BD002184F84C100546206894F8F1
:10092000542022B9C4E91811C4E91A11216702211F
:1009300084F85410416941F0060141612068416921
:10094000C9070BD000F058FC401B0528F6D9012040
:1009500003221021A16584F85420B0BD216A4269A8
:1009600004F1100522F4430211434161E36926CDED
:100970001A4311434F22C5F2020240F24F6C9042DB
:1009800041EA050EC5F2020C1CDC40F24F43C4F2F2
:100990000203984232DC40F24F23C4F20203984231
:1009A00056DC40F24F13C4F20203984200F39480E5
:1009B0005023C4F20203984200F0E880D023C4F22E
:1009C0000203E1E040F24F43C5F2020398422DDCFE
:1009D00040F24F23C5F2020398424BDC40F24F1322
:1009E000C5F20203984200F383805023C5F202034C
:1009F000984200F0CB80D023C4E000BF40F24F63A8
:100A0000C4F20203984245DC40F24F53C4F20203A1
:100A1000984277DC40F25043C4F20203984200F05F
:100A2000B58040F2D043C4F20203ADE0604543DC40
:100A300040F24F53C5F2020398426FDC40F250433C
:100A4000C5F20203984200F0A18040F2D04399E041
:100A500040F24F33C4F20203984269DC40F2502363
:100A6000C4F20203984200F0918040F2D023C4F215
:100A7000020389E040F24F33C5F20203984263DC7F
:100A800040F25023C5F20203984200F07F8040F20A
:100A9000D02377E040F24F73C4F2020398425DDC4A
:100AA00040F25063C4F2020398426FD040F2D06328
:100AB000C4F2020368E000BF40F24F73C5F20203C4
:100AC000984257DC40F25063C5F2020398425DD071
:100AD00040F2D06356E000BF40F25013C4F202036C
:100AE000984253D040F2D013C4F202034CE000BF4E
:100AF00040F25013C5F20203984247D040F2D0139F
:100B000040E000BF40F25053C4F2020398423DD08F
:100B100040F2D053C4F2020336E000BF40F250531B
:100B2000C5F20203984231D040F2D0532AE000BF10
:100B300040F25033C4F20203984227D040F2D0333F
:100B4000C4F2020320E000BF40F25033C5F20203BA
:100B500098421BD040F2D03314E000BF40F25073F3
:100B6000C4F20203984211D040F2D073C4F20203DF
:100B70000AE000BF40F2D073C5F20203984205D0EC
:100B800040F25073C5F20203984212D1D4E90935FC
:100B90004FF07C72E16A02EB05524FF47C7505EB75
:100BA000031302F07C7203F47C73114319434EEA81
:100BB000010E016C231D01F0802141EA0E01016448
:100BC0000ECB256B01F07F011143B3F5007F41EAA5
:100BD000050225D0B3F5806F40F0EC8040F2CF7174
:100BE000C4F2020188421FDD40F2CF31C5F202019A
:100BF000884239DC40F2CF11C5F20201884261DC43
:100C0000CF21C5F20201884200F3AA8040F2D071E0
:100C1000C4F20201884200F0CB805021C4E000BF42
:100C200042F40072C6E000BF40F2CF31C4F20201CC
:100C300088422FDD40F2CF51C4F20201884261DCCC
:100C400040F2CF41C4F20201884200F3078140F232
:100C5000D031C4F20201884200F0AA8040F2504133
:100C6000C4F20201A2E000BF40F2CF51C5F202017E
:100C7000884237DC40F2CF41C5F20201884277DC7E
:100C800040F2D031C5F20201884200F0918040F27A
:100C9000504189E040F2CF11C4F20201884243DDA5
:100CA00040F2CF21C4F2020188424DDC40F2D01163
:100CB000C4F2020188427BD040F25021C4F202010A
:100CC00074E000BF40F2CF21C5F20201884259DC36
:100CD00040F2D011C5F20201884269D040F25021A1
:100CE00062E000BF40F2CF61C5F20201884253DCEE
:100CF00040F2D051C5F20201884259D040F2506111
:100D000052E000BF40F2CF61C4F20201884200F31A
:100D1000B18040F2D051C4F20201884248D040F282
:100D20005061C4F2020141E05021C4F20201884244
:100D30003ED0D021C4F20201884239D040F2501195
:100D4000C4F2020132E000BF40F2D021C4F202013D
:100D500088422DD040F25031C4F2020126E000BF9B
:100D6000D021C5F20201884222D040F250111BE08E
:100D700040F2D041C5F20201884219D040F25051F0
:100D800012E000BF40F2D021C5F2020188420FD02C
:100D900040F2503108E000BF40F25071C5F202014C
:100DA000884205D040F2D061C5F2020188426DD17F
:100DB00042F48062416C43F28013C3F6C043194091
:100DC0001143416400216045816411DC40F24F71A0
:100DD000C4F2020188421BDC40F25061C4F20201FD
:100DE00088422DD040F2D061C4F2020126E000BF5B
:100DF00040F24F71C5F20201884215DC40F25061A9
:100E0000C5F2020188421BD040F2D06114E000BF5D
:100E100040F25071C4F20201884211D040F2D07108
:100E2000C4F202010AE000BF40F2D071C5F2020133
:100E3000884205D040F25071C5F20201884202D1C9
:100E40000021416581650021C167606B0122206539
:100E50000020A16584F85420B0BD00BF40F2D0410D
:100E6000C4F202018842A3D040F25051C4F2020100
:100E70009CE700BF40F2D061C4F20201884297D0E3
:100E800040F25071C4F2020190E700BF40F2D0710D
:100E9000C5F20201884208BF42F480628AE700007E
:100EA00000284ED090F84CC0BCF1010F04BF0220C6
:100EB00070474FF0010C80F84CC090F854C0BCF162
:100EC000010F39D110B54FF0020C80F854C04FF02B
:100ED000000CC0F858C0D0F800C0D0F864E0DCF8CE
:100EE0004840BEF1000FC3EA0403CCF848304FF489
:100EF000FE43CCF80C30CCF84C10CCF85020DCF889
:100F0000141041F4BA41CCF8141005D0DCF81410D8
:100F100041F40071CCF81410006F28B1DCF8140013
:100F200040F40050CCF81400DCF8140040F001004C
:100F3000CCF81400002010BD40218165002180F80C
:100F40004C10012070470000B0B5044600F054F981
:100F5000054640F20000C2F200000078611C18BF94
:100F6000044400BF00F048F9401BA042FAD3B0BDD2
:100F700070470000B0B542F20C05C4F20265296862
:100F80000446014203D020462C6000F00BF868684C
:100F9000204208BFB0BD20466C60BDE8B040FFF7FE
:100FA000E7BF0000704700002DE9F04F83B00E68E6
:100FB000002E00F0178181462030019047F67F70A7
:100FC000C0F22F0000EA9920002200234FF0010B0D
:100FD00000274FF00008C4F20262CA464FF0000C2E
:100FE00000900FE00022C4F202620E680CF1010CC6
:100FF00036FA0CF008F1020807F1040703F10803C0
:1010000000F0F0800BFA0CF516EA0500EDD09145E2
:10101000029025D04E6846F01002122A5ED16FF081
:10102000030000EA5C02019807F01C0550F802E09A
:101030000E690F24AC4006F00F062EEA0404AE4001
:1010400026438650DAF8002003204E6800FA08F59F
:10105000AA4306F0030505FA08F52A4349E000BF54
:1010600010684E6847F2742406F00106A84306FA99
:101070000CF6C0F60004304304EBCC061060D6F842
:1010800004E06FF0030054F83CA000EA5E051C2069
:10109000554400EA8E06D5F820B00F22484602FAE1
:1010A00006F92BEA090281460B2000FA06F63243C4
:1010B0002A62DAF800204FEA4E05032000FA05F60E
:1010C0000220B24300FA05F52A43CAF800204E6810
:1010D0004FF0010B122E11D936E000BFDAF80020D4
:1010E000032000FA08F5AA4306F0030505FA08F5FF
:1010F0002A43E646CAF80020122E25D80BFA06F23B
:1011000012F0061F1AD04FEA4E040320DAF8082026
:1011100000FA04F5C868AA43A0401043CAF80800C2
:10112000DAF804000BFA0EF29043320902FA0EF2DA
:101130001043032ECAF8040002D005E0032E03D1A9
:10114000886801283FF44EAFDAF80C004FEA4E02EF
:1011500003258C689540A84304FA02F21043F2007C
:10116000CAF80C007FF53EAF42F2000E2CF00300EF
:10117000C4F2026E7044026E03F018060F25B540EB
:10118000AA43009D05FA06F632430266DEF8000027
:10119000029C4A6840EA0406D50258BF20EA0406C9
:1011A000CEF80060DEF80400950240EA040658BF5D
:1011B00020EA0406CEF80460DEF88400950340EAD5
:1011C000040658BF20EA0406CEF88460DEF88000EA
:1011D000D20340EA040658BF20EA0406CEF8806035
:1011E00000E700BF03B0BDE8F08F00001823002A1D
:1011F00008BF2823C150704740F62030C2F20000DB
:101200000068704740F20041C4F203010A68D20747
:101210001CBF012070470A6822F0040210430860D6
:101220000020704740F20041C4F20301086840F01A
:10123000010200200A60704740F2000040F62031B1
:10124000C2F20000C2F2000100780A68104408608F
:101250007047000080B542F20000C4F2020001684D
:1012600041F480710160032000F0C4F801F0EAFC51
:1012700040F62041C4F20261096847F25A2201F0A7
:101280000F01C0F60002515CC84040F20801C2F2F2
:1012900000010860042002F015FB002000F008F8AF
:1012A00000281CBF012080BD00F056F8002080BD42
:1012B000B0B540F20005C2F200052978E1B304465A
:1012C0004EF21000CEF200000068400710D402F089
:1012D00047FB022824D001281AD078BB40F208002E
:1012E000C2F20000006829784FF4FA5207E000BF0C
:1012F00040F20800C2F2000000684FF47A72B2FBBC
:10130000F1F1B0FBF1F002F019FBA8B91BE000BF4E
:1013100028784FF47A71B1FBF0F04FF4FA4106E00F
:1013200028784FF47A71B1FBF0F04FF40041B1FB33
:10133000F0F002F003FB30B10120B0BD002002F05C
:10134000FDFA0028F8D14FF0FF302146002200F0CE
:1013500025F800206C60B0BD81B040F69440C4F226
:101360000260016841F004010160006800F00400BF
:101370000090009801B07047002848BF70471C22B9
:1013800000F01F0102EAD000012202FA01F14EF240
:101390000012CEF2000281507047000010B54EF6E8
:1013A0000C5CCEF2000CDCF80030C3F3022E8EF0A1
:1013B0000704042C28BF0424BEF103034FF0FF3EB2
:1013C00038BF00230EFA04F4A14399400EFA03F348
:1013D0009A43114300F00F0200F160430901043AFF
:1013E00003F564436244002848BF02F10C031970FE
:1013F00010BD00004EF60C51CEF200010A684FF607
:10140000FF031A4060F30A2242F0806040F0FD7052
:101410000860704740F60C0CC4F2026CDCF8302017
:1014200002F4403282420BD1B0F1011F68D3DCF8E4
:10143000000040F48020CCF800000020704700BF7E
:10144000DCF80020B0F5803F22F4E02242EA0002FE
:1014500040F2080088BF42F48022CCF80020C2F29B
:101460000000006841F25972CDF2B712A0FB0202EF
:10147000900B0346DCF80010B3F1FF3218BF0122D5
:1014800009041ED4591C1CD0DCF80010002B1A468D
:1014900018BF0122090414D49BB1DCF800105A1EB5
:1014A00018BF012209040CD4012B0AD0DCF800106B
:1014B0009A1E18BF0122090403D4022BA3F10403CE
:1014C000D8D112B3DCF83010421C090416D4AAB1EA
:1014D000DCF83010090412D488B1DCF830100904AB
:1014E00010D401280ED0DCF83010021F090402D4F9
:1014F00002281046E6D1901C10B906E0104620B133
:101500000020704701380028FAD1032070470000FE
:1015100040F62C00C4F20260016841F00101016054
:101520007047000040F63C00C4F20260006800F41E
:1015300040307047B0B540F6284EC4F2026EDEF877
:101540000C50DEF80030DEF80010DEF80020DEF887
:101550001040D206E40804EAE272C1F3032103F06A
:1015600003036FF35F3201F1010C00EE102A6FF3F9
:101570005F25B8EE400ADFE803F003030B0B00BF62
:101580005EF8201C09025DD4DEF8CC100B045BE091
:1015900001EE10CA9FED472AB8EE411ADEF80C1092
:1015A00082EE011A6FF35F2102EE101A9FED403AAE
:1015B000B8EE422A20EE030A30EE020AB7EE002A05
:1015C00030EE020A21EE000ADEF80010C90360D5F1
:1015D000DEF80C10C1F34621013101EE101AB8EE0D
:1015E000411A80EE011ABCEEC11A11EE102A0260F7
:1015F000DEF80010890352D5DEF80C10C1F3064165
:10160000013101EE101AB8EE411A80EE011ABCEE5B
:10161000C11A11EE102A4260DEF80010490344D5C9
:10162000DEF80C10C1F30661013101EE101AB8EEBC
:10163000411A80EE010ABCEEC00A10EE101A816059
:10164000B0BD00BF5EF8203C47F2F422190FC0F68F
:10165000000202EB810102EE10CA91ED001AB8EE11
:10166000422AB8EE411A9FED123A81EE021A02EEBA
:10167000105A20EE030AB8EE422A30EE020AB7EE04
:10168000002A30EE020A20EE010ADEF80010C9033B
:101690009ED400220260DEF800108903ACD4002240
:1016A0004260DEF800104903BAD400218160B0BD69
:1016B000000000390024744BB0B540F62C4EC4F243
:1016C000026EDEF81050DEF80030DEF80010DEF8B2
:1016D0000020DEF81440D206E40804EAE272C1F306
:1016E000032103F003036FF35F3201F1010C00EEFD
:1016F000102A6FF35F25B8EE400ADFE803F003031A
:101700000B0B00BF5EF8241C09025DD4DEF8C81084
:101710000B045BE001EE10CA9FED472AB8EE411AB8
:10172000DEF8101082EE011A6FF35F2102EE101A3C
:101730009FED403AB8EE422A20EE030A30EE020A4C
:10174000B7EE002A30EE020A21EE000ADEF80010A1
:10175000C90360D5DEF81010C1F34621013101EE56
:10176000101AB8EE411A80EE011ABCEEC11A11EE41
:10177000102A0260DEF80010890352D5DEF810103E
:10178000C1F30641013101EE101AB8EE411A80EEA4
:10179000011ABCEEC11A11EE102A4260DEF80010E8
:1017A000490344D5DEF81010C1F30661013101EEA2
:1017B000101AB8EE411A80EE010ABCEEC00A10EE13
:1017C000101A8160B0BD00BF5EF8243C47F2F422DD
:1017D000190FC0F6000202EB810102EE10CA91ED72
:1017E000001AB8EE422AB8EE411A9FED123A81EE85
:1017F000021A02EE105A20EE030AB8EE422A30EE28
:10180000020AB7EE002A30EE020A20EE010ADEF8E4
:101810000010C9039ED400220260DEF80010890384
:10182000ACD400224260DEF800104903BAD4002193
:101830008160B0BD000000390024744BB0B540F6A3
:10184000304EC4F2026EDEF81450DEF80030DEF8DE
:101850000010DEF80020DEF81840D206E40804EAA2
:10186000E272C1F3032103F003036FF35F3201F16E
:10187000010C00EE102A6FF35F25B8EE400ADFE896
:1018800003F003030B0B00BF5EF8281C09025DD4B4
:10189000DEF8C4100B045BE001EE10CA9FED472A8E
:1018A000B8EE411ADEF8141082EE011A6FF35F21D0
:1018B00002EE101A9FED403AB8EE422A20EE030ADB
:1018C00030EE020AB7EE002A30EE020A21EE000ADC
:1018D000DEF80010C90360D5DEF81410C1F346210C
:1018E000013101EE101AB8EE411A80EE011ABCEE79
:1018F000C11A11EE102A0260DEF80010890352D5D9
:10190000DEF81410C1F30641013101EE101AB8EEF1
:10191000411A80EE011ABCEEC11A11EE102A426083
:10192000DEF80010490344D5DEF81410C1F3066157
:10193000013101EE101AB8EE411A80EE010ABCEE38
:10194000C00A10EE101A8160B0BD00BF5EF8283CDE
:1019500047F2F422190FC0F6000202EB810102EEF9
:1019600010CA91ED001AB8EE422AB8EE411A9FED66
:10197000123A81EE021A02EE105A20EE030AB8EE75
:10198000422A30EE020AB7EE002A30EE020A20EEBA
:10199000010ADEF80010C9039ED400220260DEF8BE
:1019A00000108903ACD400224260DEF80010490325
:1019B000BAD400218160B0BD000000390024744B0E
:1019C00080B584B0024647F6FF7300209B1A70EB87
:1019D0000103C0F26D80D2F17F0370EB0103C0F20E
:1019E000A380013A61F10001D2F13F034FF00003FF
:1019F00073EB0101C0F04A84DFE812F040005A02A4
:101A000048040402480448044804EA01480448041D
:101A1000480448044804480448041E024804480492
:101A20004804480448044804480448044804480456
:101A300048044804480448044804C60148044804CB
:101A40004804480448044804480448044804480436
:101A50004804480448044804480448044804480426
:101A60004804480448044804480448044804480416
:101A7000480448044804480448043A0240F6004038
:101A8000C4F20260D0F8E01001F00301012900F077
:101A90005183002900F0F8820268022903D112F470
:101AA000806240F09E83D0F8F00003294FE200BF2F
:101AB0004FF6FF73C0F23F039B1A70EB010367DB25
:101AC0004FF6FF73C0F203039B1A4FF0000C7CEB40
:101AD000010380F285804FF6FF73C0F20F039B1A5B
:101AE0007CEB0103C0F2EE8082F480230B4300F014
:101AF000F98182F40022114340F0C88340F600408F
:101B0000C4F20260D0F8E410026801F4405192047B
:101B100040F12483002940F0218346F60040C0F2C2
:101B2000DC2004B080BD00BF40F2FF339B1A4FF0B1
:101B3000000C7CEB010380F2778041F6FF739B1A67
:101B40007CEB0103C0F2DC8082F480630B4300F085
:101B5000DF8182F40062114340F0988340F6004038
:101B6000C4F20260D0F8E81011F4407100F09282E3
:101B7000D0F8F020B1F5807F03D112F0006240F080
:101B800000830268B1F5007F00F069816BE100BF5E
:101B90006FF07E439B1A4FF0000C7CEB010380F248
:101BA00073806FF078439B1A7CEB0103C0F2C68010
:101BB00082F000730B4300F0D38182F08062114306
:101BC00040F0648340F60040C4F20260D0F8E410B4
:101BD000C1F30151DFE811F0AE025E021A02B40255
:101BE00082F400430B4300F0618282F480330B43A4
:101BF00000F0128282F40032114340F0478340F635
:101C00000041C4F20261D1F8E800C0F30242042AA4
:101C100000F2CC824BF68030DFE812F0580212025C
:101C2000D60238039A0200BF82F080030B4300F013
:101C3000538282F480730B4300F0088282F40072B6
:101C4000114340F0238340F60040C4F20260D0F814
:101C5000E81011F4406100F0A582D0F8F020B1F551
:101C6000806F03D112F0006240F08B820268B1F500
:101C7000006F03D112F4806240F0B382D0F8F0001C
:101C8000B1F5406F63E100BF82F480030B4300F0C5
:101C90003F8282F400030B4300F0EA8182F08072FD
:101CA000114340F0F38240F60040C4F20260D0F8E5
:101CB000E010C1F30141DFE811F038023D02F70105
:101CC000ED0100BF82F480130B4300F0578182F4D2
:101CD0000012114340F0DA8240F60040C4F2026084
:101CE000D0F8E410490400F1AB81D0F8E010C1F362
:101CF0008161DFE811F0510125028B01CF0100BFA6
:101D000082F400530B4300F0518182F4804211436E
:101D100040F0BC8240F60041C4F20261D1F8E40018
:101D2000C0F30222042A00F241824BF68030DFE841
:101D300012F0330251018701AD02410282F00063CB
:101D40000B4300F04D8182F08052114340F09E829F
:101D500040F60041C4F20261D1F8E800D1F8F02069
:101D6000920700F4004202D5002A00F0CC80D1F89E
:101D7000F00000014FF0000040F18882002A00F0DE
:101D80008582D1F8F000FEE140F60041C4F2026124
:101D9000D1F8E80000F00700012800F0CB8100280E
:101DA00000F060810A68022803D112F4806240F0DA
:101DB0001882D1F8F020032803D112F0020240F07B
:101DC000A2800A6804284FF0000000F055825DE20E
:101DD00040F60040C4F20260D0F8E01001F0C0010B
:101DE000402900F0A781002900F09F810268802926
:101DF00003D112F4806240F0F481D0F8F000C029E1
:101E0000A5E000BF40F60040C4F20260D0F8E01048
:101E100001F03001102900F08D81002900F085814A
:101E20000268202903D112F4806240F0DA81D0F8F0
:101E3000F00030298BE000BF40F60040C4F20260A1
:101E4000D0F8E01001F44071B1F5807F00F07281AC
:101E5000002900F06A810268B1F5007F03D112F415
:101E6000806240F0BE81D0F8F000B1F5407F6EE0B6
:101E700040F60041C4F20261D1F8E00000F4406095
:101E8000B0F5806F00F05681002800F04E810A689E
:101E9000B0F5006F03D112F4806240F0A2810A68AD
:101EA000B0F5406F4FF0000000F0E681EEE100BFBA
:101EB00040F60040C4F20260D0F8E01001F00C01DE
:101EC000042900F03781002900F02F8102680829D9
:101ED00003D112F4806240F08481D0F8F0000C2924
:101EE00035E000BF40F60040C4F20260D0F8F010C8
:101EF000D0F8F02001F44071920740F13B81B1F538
:101F0000807F40F037814FF4004004B080BD00BFB7
:101F100040F60040C4F20260D0F8E01011F4402115
:101F200000F00381D0F8F020B1F5802F03D112F03A
:101F3000006240F026810268B1F5002F03D112F44F
:101F4000806240F04E81D0F8F000B1F5402F00F0F3
:101F500002024FF0000008BF900304B080BD00BF34
:101F600040F60040C4F20260D0F8E810C1F3C101AD
:101F7000DFE811F07800E0009A00900040F60040A1
:101F8000C4F20260D0F8E010C1F38161DFE811F023
:101F90000400D8003E008200006846F6004180043C
:101FA000C0F2DC2101EAE07004B080BD40F60041DF
:101FB000C4F20261D1F8E400C0F34212042A00F234
:101FC000F5804BF68030DFE812F0E70005003B00BB
:101FD0006101F50001A8FFF731FC019804B080BD54
:101FE00040F60040C4F20260D0F8E01000688003C0
:101FF00001F0407002D5002800F0F380B0F1007FBE
:1020000000F0CA80B0F1807F40F0D08001A8FFF7D7
:1020100091FA029804B080BD40F60041C4F202611A
:10202000D1F8E40000F00702042A00F2BF804BF66A
:102030008030DFE812F04B000500C9002B018D0055
:1020400001A8FFF777FA019804B080BD40F6004080
:10205000C4F20260D0F8E810C1F38111DFE801F0AA
:10206000026A241A04B0BDE8804000F0CBBD00BF76
:1020700040F60040C4F20260D0F8E010C1F3015114
:10208000DFE801F00258120804B0BDE8804000F01B
:1020900099BD00BF0168890640F188808168090206
:1020A00054D4D0F8F400EFE0006884E040F600413A
:1020B000C4F20261D1F8E800C0F30232052A00F24E
:1020C000BB80DFE802F00337B3B9B94504B0BDE81F
:1020D000804000F041BD00BF40F60041C4F2026103
:1020E000D1F8E00000F44050B0F5805F22D0E0B1BC
:1020F0000A68B0F5005F02D112F4806271D10A68FB
:10210000B0F5405F4FF0000000F0B680BEE000BFC9
:1021100040F60041C4F20261D1F8E00000F4404012
:10212000B0F5804F06D0002854D104B0BDE88040FF
:1021300000F028BD04B0BDE8804000F083BD00BFC2
:1021400001A8FFF7B9FA029804B080BD8068A0E04A
:102150000868800600F1938028E000BF02689204BE
:1021600046D5B1F5805F43D143F20060C0F26E10F6
:1021700004B080BDD0F8F020120147D5B1F5007F42
:1021800044D1D0F8F000C0004FF0FA0058BF4FF42F
:10219000FA4004B080BD00BF01A8FFF78DFA019896
:1021A00004B080BD016889063FF578AF002004B017
:1021B00080BD00BF086842F200414005C0F2F40152
:1021C00001EAE07004B080BD01A8FFF737FB029878
:1021D00004B080BD0A68B0F5004F47D112F48062A8
:1021E00044D042F20040C0F2F40004B080BD00BF11
:1021F0000068B1F5005F00F480624FF0000004BF9A
:1022000042F20040C0F2F4000CE000BF0068B1F5FB
:10221000407F00F400324FF0000004BF4AF220106B
:10222000C0F20700002A08BF10462FE001A8FFF700
:1022300043FA039804B080BD00F4E0420B6842F218
:102240000040B2F5405FC0F2F40002D113F4003355
:102250001CD1096811F4806118BF0146B2F5804FA6
:1022600018BF0021084604B080BD00BF0A68B0F561
:10227000404F4FF0000009D112F0200206D08868CC
:10228000000205D4D1F8F400000402E004B080BDDF
:102290008868C0F3036047F2F421C0F6000151F8EA
:1022A000200004B080BD00002DE9F04F81B004464D
:1022B000006840F6E046C107C4F202661ED18107FD
:1022C00024D441072AD4010730D4C10636D481066C
:1022D0003CD4410642D4010648D4C1054ED4410243
:1022E00054D481055AD4410560D4010566D440F622
:1022F00028488004C4F202686DD494E03168226DED
:1023000021F00301114331608107DAD53168626D34
:1023100021F00C01114331604107D4D53168A26D21
:1023200021F03001114331600107CED53168E26DF3
:1023300021F0C00111433160C106C8D53168226E59
:1023400021F44071114331608106C2D5B168626EDB
:1023500021F007011143B1604106BCD53168A26E7E
:1023600021F44061114331600106B6D53168E26E57
:1023700021F4405111433160C105B0D5B168226FDD
:1023800021F0C0011143B1604102AAD53168626FEA
:1023900021F44041114331608105A4D5B168A26F99
:1023A00021F440611143B16041059ED53168E26F6F
:1023B00021F4402111433160010598D5B168D4F86A
:1023C000802021F440711143B16040F62848800418
:1023D000C4F2026827D5D4F890004FEA701104299E
:1023E00028D8DFE801F003130B1B1B0004F10800E1
:1023F00003F000F80546B8B90EE000BFD8F80010A9
:1024000041F48031C8F8001008E000BF04F12C004E
:1024100003F06AF8054638B9D4F89000716821F0E5
:10242000E0010843706000256078400606D4284625
:1024300029E000BF012560784006F8D5D4F8940063
:102440004FEA3021042939D82846DFE801F0032F6C
:102450000B12120004F1080002F0CCFF074698B9F5
:1024600009E000BFD8F8000040F48030C8F8000050
:102470002846074640B97068D4F8941020F4E0600C
:102480000843706000202F466178090629D5D4F8EA
:10249000A4104FEA3131052900F2C681022911D07A
:1024A0000546B0B1A178C9071FD13BE004F12C006B
:1024B00003F01AF800280746E6D1DCE701200127DF
:1024C000E2E700BF04F1080002F094FF002805468F
:1024D000E8D1B068D4F8A41020F4E0400843B0601C
:1024E00000203D46A178C9071CD0D4F888100429E3
:1024F00000F29281DFE811F00C0006007C010C0074
:102500000C0000BFD8F8001041F48031C8F800106A
:10251000074640B97068D4F8881020F007000843D7
:10252000706000202F46A17889071DD5D4F88C1043
:102530004FEA3141042900F27381DFE811F00B000A
:10254000050063010B000B00D8F8001041F4803146
:10255000C8F80010824640B9B068D4F88C1020F456
:10256000E0200843B0600020BA46A178490701D4B2
:10257000574659E0834656F84C0C5FEA40790BD435
:1025800056F84C0C40F0040046F84C0C56F84C0C35
:1025900000F00400009000984FF60047CFF6FF7758
:1025A00058F8070040F0010048F80700FEF724FE45
:1025B000054600BF58F80700C00707D1FEF71CFE0C
:1025C000401B0228F6D90320032724E05846BBF11C
:1025D000000F5F461FD1306910F4407012D0D4F85C
:1025E000BC1088420BD03069316920F4407041F44E
:1025F00080313161316921F4803131613061C0074E
:1026000040F01A813069D4F8BC1020F440700843BF
:10261000306100205746B9F1000F05D456F84C1C24
:1026200021F0040146F84C1CA178C90618D5D4F84D
:102630009C104FEAB161032900F2D080DFE801F07D
:102640000602C20604F1080002F0D4FE024640B9B8
:102650003068D4F89C1020F04060084330600020BF
:102660003A4621680B031DD5D4F8983033B1B3F541
:10267000005F18BFB3F5805F40F0B480054658B1E5
:102680008A0212D40A0222D4CA0129D48A0130D47F
:10269000490137D459E000BF706820F44050184316
:1026A0007060002015468A02ECD5D4F8A020B2F55F
:1026B000804F05D1D8F8003043F48033C8F800309B
:1026C000736823F480431A4372600A02DCD53268CF
:1026D000D4F8B03022F440121A433260CA01D5D582
:1026E0003268D4F8B43022F440321A4332608A019E
:1026F000CED5B268D4F8B83022F018021A43B260CE
:10270000490122D5D4F8AC10B1F5401F0ED0B1F577
:10271000001F05D1D8F8001041F40031C8F80010AE
:10272000074650B1E178090713D436E004F10800F8
:1027300002F060FE00280746F4D17068D4F8AC10AF
:1027400020F440100843706000202F46E17809070C
:1027500023D5D4F8841059B1B1F1007F10D0B1F174
:10276000807F29D1D8F8001041F40031C8F800105A
:1027700060B1E178C90614D401B0BDE8F08F00BFA4
:1027800004F1080002F036FE0028F2D13068D4F8D7
:10279000841020F04070084330603846E178C90664
:1027A000EAD5B168D4F8A82021F400411143B16002
:1027B00001B0BDE8F08F00BF0120E178C906DBD58C
:1027C000EFE700BFD8F8001041F40031C8F800105E
:1027D000002802467FF445AF3AE700BF01200122FE
:1027E0003FE700BF012001258A027FF54BAF5CE780
:1027F00004F12C0002F078FE002807467FF493AE27
:1028000088E600BF04F12C0002F06EFE002882462C
:102810007FF4ABAEA0E600BF0120012783E600BF36
:1028200001204FF0010AA0E601200125A178C90787
:102830007FF45BAE76E600BFFEF7DEFC054641F2B4
:10284000883B0327306980073FF5DCAEFEF7D4FCF8
:10285000411B03205945F5D9DDE600002DE9F04F75
:1028600081B0002800F01C8142F20008C4F2020886
:102870000446D8F800000D4600F00F0081420DD943
:10288000D8F8000020F00F002843C8F80000D8F85E
:10289000000000F00F00A84240F00281206840F6DE
:1028A0002049C106C4F202690DD56169D9F8042036
:1028B00002F07002914206D9D9F8042022F0700289
:1028C0001143C9F8041001070FD52169D9F8002078
:1028D000702303EA1212914207D9D9F8002022F49A
:1028E000E06242EA0111C9F8001041070DD5E16824
:1028F000D9F8002002F07002914206D9D9F80020E0
:1029000022F070021143C9F8001081070DD5A168AB
:10291000D9F8002002F00F02914206D9D9F8002020
:1029200022F00F021143C9F80010C00774D12068CB
:1029300081070DD5A168D9F8002002F00F0291425D
:1029400006D2D9F8002022F00F021143C9F8001076
:10295000D8F8001001F00F018D420DD2D8F8001008
:1029600021F00F012943C8F80010D8F8001001F039
:102970000F01A94240F0948041070DD5E168D9F8D4
:10298000002002F07002914206D2D9F8002022F015
:1029900070021143C9F8001001070FD52169D9F859
:1029A0000020702303EA1212914207D2D9F80020C6
:1029B00022F4E06242EA0111C9F80010C0060DD508
:1029C0006069D9F8041001F07001884206D2D9F884
:1029D000041021F070010843C9F8040000F032F936
:1029E000D9F8001047F25A2201F00F01C0F6000298
:1029F000525C40F20401C2F20001096840F208038F
:102A000020FA02F2C2F2000308461A6001B0BDE8E3
:102A1000F04FFEF74DBC00BF606840F61C47C4F2A3
:102A2000026798B302282BD0032835D1D9F8740057
:102A30005FEA407A0BD4D9F8740040F00400C9F87A
:102A40007400D9F8740000F0040000900098FEF7BC
:102A5000D3FB4FF6F03BCFF6FF7B57F80B10490343
:102A60006AD4BAF1000F05D4D9F8740020F004003C
:102A7000C9F8740057F81C0C800111D5606813E088
:102A800057F81C0C80030BD502200DE057F81C0CE6
:102A9000400705D5002007E057F81C1C490503D462
:102AA000012001B0BDE8F08F396821F0030108432F
:102AB0003860FEF7A1FB61680646032941F2883AB7
:102AC00033D0022923D069B9386810F00C0F3FF4D5
:102AD0002EAFFEF791FB801B50454FF00300F3D95A
:102AE000DFE700BF386800F00C0004283FF41FAF98
:102AF000FEF782FB801B50454FF00300F2D9D0E770
:102B0000FEF77AFB801B50454FF00300C9D83868A8
:102B100000F00C000828F3D109E700BFFEF76CFBBA
:102B2000801B50454FF00300BBD8386800F00C0004
:102B30000C28F3D1FBE600BF064600BF57F80B0098
:102B400040043FF58EAFFEF757FB801B02284FF085
:102B50000300F3D9A5E7000080B500F073F840F654
:102B60002041C4F20261096847F25A2201F00F01C4
:102B7000C0F60002515CC84040F20801C2F20001F8
:102B8000086080BD80B500F05DF840F62041C4F2D9
:102B900002610A6847F25A2302F00F02C0F60003EE
:102BA0009A5CD04040F20802C2F20002106009684C
:102BB00047F26A22C1F30211C0F60002515CC8401C
:102BC00080BD000080B500F03DF840F62041C4F221
:102BD00002610A6847F25A2302F00F02C0F60003AE
:102BE0009A5CD04040F20802C2F20002106009680C
:102BF00047F26A22C1F30221C0F60002515CC840CC
:102C000080BD000080B500F01DF840F62041C4F200
:102C100002610A6847F25A2302F00F02C0F600036D
:102C20009A5CD04040F20802C2F20002106049688B
:102C300047F26A22C1F30211C0F60002515CC8409B
:102C400080BD000040F62841C4F2026151F80C0C2E
:102C500010F00C02086815D00C2A04BF00F0030025
:102C600001280FD051F80C0C9FED350A00F00C0034
:102C7000042842F20040C0F2F4001DD0082A18BF18
:102C8000002019E051F8200C000205D4D1F8CC0046
:102C9000C0F3033003E000BF51F8200C000F47F2EF
:102CA000F423C0F6000353F82000002A00EE100AB7
:102CB00018BF0020B8EE400A0C2A18BF7047D1F8A0
:102CC00000C00A680B68C2F303220869013201EEF2
:102CD000102AC008B8EE411ADB069FED1B2A00EA55
:102CE000E3705FEA8C7258BFB0EE402A82EE010AB0
:102CF0006FF35F3001EE100AC868B8EE411A6FF347
:102D00005F2002EE100A9FED0F3AB8EE422A21EE44
:102D1000031AC86831EE021AB7EE002AC0F3066043
:102D200031EE021A013020EE010A01EE100AB8EE6F
:102D3000411A80EE010ABCEEC00A10EE100A70477C
:102D400000000000000000390024744B002804BF7C
:102D5000012070472DE9F04381B040F694490446C4
:102D6000C4F2026959F8780C59F86C1C227800F00A
:102D70000C07D00601F0030822D42078C00779D0D0
:102D8000082F73D00C2F08BFB8F1030F6ED040F698
:102D90000046C4F2026661683068B1F5803F00F019
:102DA000DF82B1F5A81F00F0D382B1F5A02F40F06B
:102DB000E98240F480203060306820F48010CDE259
:102DC00017B30C2F08BFB8F1010F1DD040F6004615
:102DD000C4F20266E1693068002900F0CD8140F05C
:102DE00001003060FEF708FA054600BF3068400772
:102DF00000F1D481FEF700FA401B02284FF00300D7
:102E0000F4D900F03ABD00BFE069002800F0D68395
:102E100040F60045C4F20265666AA86800025ABF1F
:102E2000D9F860000004A86800F07040864240F2C3
:102E30007781002F40F03983D9F80000400700F176
:102E40001983D9F8000040F00400C9F80000D9F84F
:102E5000000000F0040000900098FEF763FBD9F832
:102E6000001021F00401C9F8001005E36068002893
:102E700000F0A483207880072FD5042F20D00C2FBA
:102E800008BFB8F1020F1BD040F60046C4F202663C
:102E9000E1683068002900F0378240F480703060CB
:102EA000FEF7AAF9054600BF306840050CD4FEF7CE
:102EB000A3F9401B02284FF00300F5D900F0DDBC58
:102EC000E068002800F07A8359F8840C216920F426
:102ED000F81040EA014049F8840C207840F6004799
:102EE0000007C4F2026771D42078400700F1C68061
:102EF0002078800600F128812078000600F16281A8
:102F00002078400600F1AC81A56B002D00F0D28442
:102F100059F8780C00F00C000C2840F0618259F848
:102F20006C1C59F8600C012D00F04883E26B01F035
:102F30000303934240F04283226CC1F30323013A1E
:102F4000934240F03B83626C01F47041914240F047
:102F50003583A26C01466FF35F21013A914240F044
:102F60002D83E16CC0F3462201398A4240F026836A
:102F7000216DC0F3064201398A4240F01F83616D22
:102F8000C0F306600139884240F0188359F85C0CA0
:102F9000E16DC0F3CC00884200F08C8459F86C0CD1
:102FA00020F0100049F86C0CFEF726F90546FEF7F4
:102FB00023F9A842FBD0E06DC00049F85C0C59F839
:102FC0006C0C40F0100000F073BC00BFD9F800009A
:102FD0005FEA40780BD4D9F8000040F00400C9F84B
:102FE0000000D9F8000000F00400009000984FF6AF
:102FF0002846CFF6FF76B859C00713D1B85940F02C
:103000000100B851FEF7F8F8054600BFB859C007EF
:1030100008D1FEF7F1F8401B0228F7D9032001B0D0
:10302000BDE8F0836069D9F85C10002800F0E28008
:10303000A06901F08052904200F0328301F04062BA
:10304000B2F1006F00F0BA82490140F12283D9F851
:103050005C0020F0A050C9F85C00FEF7CDF80546F2
:10306000D9F85C00000140F11383FEF7C5F8401B5E
:1030700005284FF00300F3D900F0FFBBD9F800009A
:103080005FEA40780BD4D9F8000040F00400C9F89A
:103090000000D9F8000000F00400009000984FF6FE
:1030A0002846CFF6FF76B859C00713D1B85940F07B
:1030B0000100B851FEF7A0F8054600BFB859C00797
:1030C00008D1FEF799F8401B02284FF00300F5D90C
:1030D000D3E300BFA068C10740F0A280D9F85C101C
:1030E000002821F00101C9F85C10D9F85C1021F02A
:1030F0000401C9F85C1040F0A180FEF77DF8054698
:1031000041F28836D9F85C00800740F19782FEF7DB
:1031100073F8401BB0424FF00300F3D9ADE300BF9A
:10312000A868B6F1404F40F40000A860A86820F0FD
:10313000704040EA0600A860C0F0AC80E868216AF0
:1031400020F01F000843F7E1E16A3868002900F029
:10315000ED8040F480503860FEF74EF8054600BF21
:10316000386880043FF5C8AEFEF746F8401B0228D9
:103170004FF00300F4D980E320F001003060FEF747
:103180003BF80546306840077FF5F7ADFEF734F8A9
:10319000401B02284FF00300F4D96EE3B06840F4FE
:1031A0000000B060B168606A21F070410143B0F185
:1031B000404FB160C0F09880F068216A20F01F0095
:1031C000084337E2216B3868002900F0F78040F4AB
:1031D00080403860FEF710F8054600BF38680004EC
:1031E0003FF58EAEFEF708F8401B02284FF00300B3
:1031F000F4D942E321F0A050C9F85C00FDF7FCFFD0
:10320000054600BFD9F85C00000140F15F82FDF780
:10321000F3FF401B05284FF00300F3D92DE300BF57
:10322000D9F85C10400705D541F00400C9F85C00EE
:10323000D9F85C1041F00100C9F85C00FDF7DCFF33
:10324000054641F2883600BFD9F85C00800731D4CA
:10325000FDF7D2FF401BB0424FF00300F4D90CE35E
:10326000606B002800F0F280B86840F40000B8609D
:10327000B968D4E9090221F07061B0F1404F41EA28
:103280000201B960C0F04481F868216A20F01F0093
:103290000843DFE2B6F1FF3F40F32881E968206A86
:1032A000B6F1804FC0F0448121F4F84141EA80201A
:1032B00042E100BFA168D9F85C00090600F1B280C4
:1032C00020F0800041F28836C9F85C00D9F85C0033
:1032D000000540F1B881FDF78FFF401BB0424FF071
:1032E0000300F3D9C9E200BFB0F1FF3F40F37281A0
:1032F000F268216AB0F1804FC0F0988122F4F84062
:1033000040EA812096E100BF20F480703060FDF734
:1033100073FF0546306840057FF5DFADFDF76CFFB4
:10332000401B02284FF00300F4D9A6E220F480509D
:103330003860FDF761FF0546386880047FF5DCAD35
:10334000FDF75AFF401B02284FF00300F4D994E226
:1033500040F480203060306840F480103060306885
:1033600040F480303060FDF747FF05463068800349
:103370003FF580ADFDF740FF401B64284FF0030090
:10338000F4D97AE220F4803030603068002920F4EB
:1033900080203060306820F480103060E3D1FDF789
:1033A0002BFF0546306880037FF564ADFDF724FFF1
:1033B000401B64284FF00300F4D95EE220F4804003
:1033C0003860FDF719FF0546386800047FF598ADB1
:1033D000FDF712FF401B02284FF00300F4D94CE226
:1033E000386820F080703860FDF706FF022D054632
:1033F0000CD13868800140F17581FDF7FDFE401B5E
:1034000002284FF00300F4D937E200BF386880018A
:1034100040F1F681FDF7F0FE401B02284FF003005B
:10342000F4D92AE240F0800041F28836C9F85C0005
:10343000D9F85C00000500F10681FDF7DDFE401BB8
:10344000B0424FF00300F3D917E200BF386820F014
:1034500010003860FDF7D0FE054600BF38688006D2
:103460007FF552ADFDF7C8FE401B02284FF0030068
:10347000F4D902E2FEF756F820F48031B1F5003FAE
:103480003CD10021B6F1805F38BF012142F200003B
:10349000C4F20200026822F00F020A4402600068CF
:1034A00000F00F00884240F08980A86840F40000D6
:1034B000A860A968606A21F070410143B0F1404FF3
:1034C000A96005D3E868216A20F01F0008438DE059
:1034D000B0F1FF3F76DDEA68216AB0F1804FC0F0BD
:1034E000818022F4F84040EA81207FE0E868216A88
:1034F00020F4787040EA41101EE000BF0021B1EBDB
:10350000167F40F0AD80B0F5803F57D10321BDE775
:10351000B0F1FF3F40F37C81FA68216AB0F1804F3F
:10352000C0F0948122F4F84040EA812092E100BF8B
:1035300021F4782141EAC030002FE86057D1D9F852
:103540000000400714D4D9F8000040F00400C9F886
:103550000000D9F8000000F0040000900098FDF78A
:10356000E1FFD9F8001021F00401C9F8001001E0D2
:10357000FDF7D8FF20F48031B1F5003F14D10021D0
:10358000B6F1805F38BF012142F20000C4F20200B0
:10359000026822F00F020A440260006800F00F0087
:1035A000884224D00AE000BF0021B1EB167F63D12E
:1035B000B0F5803F02D10321E6E700BF012001B052
:1035C000BDE8F083E868216A20F4787040EA411091
:1035D0000CE000BFF068216A20F4787040EA4110E6
:1035E00028E000BF22F4782040EAC130E860FFF70D
:1035F00029FB59F8741C47F25A2201F00F01C0F65A
:103600000002515C40F2080220FA01F140F204008D
:10361000C2F200000068C2F200021160FDF748FE2D
:10362000002840F02A81FFF7A8BB00BF22F47820D1
:1036300040EAC130F060FFF7A0BB00BFD9F85C00E2
:10364000000600F1ED80B8F1000F3FF551ACD9F85C
:10365000000020F00400C9F80000FFF749BC00BFDB
:10366000B6F1005F40F20C8100287FF40FAFB6F195
:10367000405F98BF012109E7B6F1005F40F20A817F
:1036800000287FF481AFB6F1405F98BF01217BE74E
:10369000A069D9F85C1021F080510843C9F85C009A
:1036A000D9F85C0040F08060C9F85C00FDF7A4FD2B
:1036B000054600BFD9F85C00000107D4FDF79CFD6A
:1036C000401B05284FF00300F4D9D6E0B8F1000FF5
:1036D0003FF50AACD9F8000020F00400C9F800005A
:1036E000FFF702BCD9F800005FEA407C0BD4D9F8A0
:1036F000001041F00401C9F80010D9F8001001F0E1
:103700000401009100994FF60C48CFF6FF7857F866
:1037100008E057F808304FF6037623F4802347F883
:10372000083059F86C3CD4E91102B343D4E90F6571
:103730006FF0FF013343184301EB05214FF47E4343
:10374000084349F86C0C59F8600C0021C8F280015C
:103750000840511EE26C4FF4FE0503EB4222236D3C
:103760006FF35F2105EB0343656D92B24FF0FE46A8
:1037700006EB0565084403F4FE03104405F0FE451E
:103780001844284449F8600C59F86C0C20F01000DB
:1037900049F86C0CE06DC00049F85C0C59F86C0CF1
:1037A00040F0100049F86C0C59F86C0CA16D20F039
:1037B0000C0008435FEA4E3149F86C0C05D557F808
:1037C000080040F4802047F80800BCF1000F05D441
:1037D000D9F8000020F00400C9F80000386840F073
:1037E00080703860FDF708FD0446386880015BD4BE
:1037F000FDF702FD001B02284FF00300F5D93CE065
:1038000059F86C0C4FF6FC71CFF6F87108404FE098
:10381000F868216A20F4787040EA41101AE000BF8D
:10382000D9F85C0041F2883620F08000C9F85C00CD
:10383000D9F85C0000057FF506AFFDF7DDFC401B05
:10384000B0424FF00300F3D917E000BF22F4782014
:1038500040EAC130F860386840F010003860FDF789
:10386000CBFC0546386880063FF54EABFDF7C4FC3F
:10387000401B02284FF00300F4D901B0BDE8F083EB
:10388000B6F1805F1AD10221B0F5803F08BF012157
:10389000FCE500BFB6F1805F12D10221B0F5803F98
:1038A00008BF012170E600BF59F86C0C40F480207D
:1038B00049F86C0C002001B0BDE8F0830121E5E57A
:1038C000012161E6042888BF7047DFE800F0031B90
:1038D00013352D004EF21000CEF20000016821F0E9
:1038E0000401016040F6E040C4F20260016821F486
:1038F000400120E04EF21000CEF2000001680222EA
:1039000006E000BF4EF21000CEF200000168012276
:1039100021F00401016040F6E040C4F20260016859
:1039200062F3975107E000BF4EF21000CEF20000A4
:10393000016841F00401016070470000411E002051
:10394000B0EB116F1CBF012070474EF21002CEF297
:10395000000251609060116841F0030111607047EE
:103960004EF21000CEF200000068400744BF042071
:10397000704740F6E040C4F20260006802A1C0F364
:10398000815051F820007047000000000100000045
:10399000020000000000000090F83C20012A04BF53
:1039A00002207047B0B5D1E90232D1E900CE23F44C
:1039B000705322F47C5243EA020448F2FF73CEF6BD
:1039C000F0730EEA0302224303F5006404EA0C04D8
:1039D00042EA040C0C6903F5C05222404C6942EAE9
:1039E0000C02224303F5605422400C6B03F5F043B4
:1039F00023408C6913430022CEF6FF7202EA044C86
:103A0000CC690268234342F6FF34C5F20104A242A6
:103A100043EA0C030CDC42F60044C4F20104A24267
:103A200012D043F20044C4F20104A2420CD023E0BD
:103A300043F20044C5F20104A24205D042F600441C
:103A4000C5F20104A24217D14FF6FF74CDF60F4420
:103A500003EA040C8B6A0025D1E908E4CDF6F045B1
:103A600005EA03532EF0085543EA0C03C96A2B43B9
:103A700024F000552B430B430021536480F83C1085
:103A80000020B0BD90F83C20012A4FF0020200F067
:103A9000A68010B580F83D20026842F6FF33D2F8C8
:103AA00004E0D2F808C0C5F201039A420CDC42F6E9
:103AB0000043C4F201039A4212D043F20043C4F21D
:103AC00001039A420CD010E043F20043C5F2010317
:103AD0009A4205D042F60043C5F201039A4204D14E
:103AE0004C682EF4700344EA030E4FF68F73CFF642
:103AF000FF530C6803EA0E032343B2F1A04F536057
:103B000016DA40F6FF33C4F200039A4226DD43F290
:103B1000FF33C4F201039A423CDC40F60043C4F296
:103B200000039A424ED042F60043C4F2010347E03C
:103B300040F6FF33C5F200039A421DDD43F2FF3326
:103B4000C5F201039A4231DC40F60043C5F200039E
:103B50009A4237D042F6004330E000BFB2F1804FC6
:103B600030D040F20043C4F200039A422AD040F61B
:103B70000003C4F2000323E0B2F1A04F22D040F2D0
:103B80000043C5F200039A421CD040F60003C5F280
:103B9000000315E043F20043C4F201039A4211D03E
:103BA00044F20003C4F201030AE000BF44F2000340
:103BB000C5F201039A4205D043F20043C5F2010366
:103BC0009A4204D189682CF0800319439160012145
:103BD000002280F83D1080F83C20BDE810401046DF
:103BE0007047000090F83C30012B04BF0220704762
:103BF0004FEAB2020123052A80F83C3000F24681E8
:103C0000F0B581B0DFE802F0045E3E52107200BFF2
:103C10000268054610460C4601F0DAFE2A6828467E
:103C200052F8181F38E000BF036842F6FF37D3F898
:103C300020C01A6AC5F2010722F480321A621A46BD
:103C40005C6852F850EF0D688E68BB427CDC43F62E
:103C5000FF77C4F20107BB4240F3A28044F20007A1
:103C6000C4F20107BB4200F0B38044F20047C4F243
:103C70000107BB4200F0AC8044F60007C4F2010724
:103C8000A4E000BF0268054610460C4601F0ECFFB8
:103C90002A68284652F81C1F41F00801116011687B
:103CA00021F0040111602169E9E000BF02680546C6
:103CB00010460C4602F06EF82A68284652F81C1F7F
:103CC0000AE000BF0268054610460C4601F036FFC8
:103CD0002A68284652F8181F41F4006111601168E3
:103CE00021F4806111602169C8E000BF036842F6D9
:103CF000FF37D3F820C01A6AC5F2010722F48012F8
:103D00001A621A465C6852F8505FD1F800E08E687B
:103D1000BB422FDC43F6FF77C4F20107BB4277DDDD
:103D200044F20007C4F20107BB4200F0898044F26C
:103D30000047C4F20107BB4200F0828044F600074E
:103D4000C4F201077AE000BF43F6FF77C5F201072E
:103D5000BB4231DD44F20007C5F20107BB4237D058
:103D600044F60007C5F20107BB4231D044F20047D8
:103D70002AE000BF43F6FF77C5F20107BB4253DDDF
:103D800044F20007C5F20107BB4259D044F60007D0
:103D9000C5F20107BB4253D044F200474CE000BFDC
:103DA00042F60047C4F20107BB4211D043F200477C
:103DB000C4F201070AE000BF42F60047C5F201075E
:103DC000BB4205D043F20047C5F20107BB4204D114
:103DD0004F6924F4803444EA07242CF4003747EA7E
:103DE00006474FF68F76CFF6FE7606EA0E062E438E
:103DF0005C601E654E6809699E641F621F6D47F016
:103E000008071F651F6D27F004071F6537E000BF17
:103E100042F60047C4F20107BB4211D043F200470B
:103E2000C4F201070AE000BF42F60047C5F20107ED
:103E3000BB4205D043F20047C5F20107BB4204D1A3
:103E40004F6924F4802444EA87242CF4001747EABD
:103E5000065748F6FF76CFF6FF662E4046EA0E2656
:103E60005C601E654E680969DE641F621F6D47F461
:103E700000671F651F6D27F480671F6509021368BF
:103E800019430023116001B0BDE8F040002180F823
:103E90003C10184670470000002804BF01207047FE
:103EA00010B5044690F83D0028B9002084F83C0085
:103EB000204600F023F8022084F83D002068211DF0
:103EC00001F046FC012084F8480084F83E0084F8A4
:103ED0003F0084F8400084F8410084F8420084F8F0
:103EE000430084F8440084F8450084F8460084F8D0
:103EF000470084F83D00002010BD000082B000683B
:103F000044F20001C4F20101884215D040F20041A0
:103F1000C4F2000188421CD140F69C40C4F2026009
:103F2000016841F002010160006800F002000190A8
:103F3000019802B0704700BF40F69C40C4F2026096
:103F4000816841F480318160806800F480300090A5
:103F5000009802B07047000080B5D9B10B1F4FEA3E
:103F6000B30E43224FF03F0CBEF1040F38BF0CEBF1
:103F7000B302825C012A1CBF012080BDBEF1030F89
:103F80001ED8DFE80EF00319111500BF022280F8D9
:103F90003F2018E090F83E20012A1CBF012080BD80
:103FA000022280F83E200EE0022280F841200AE042
:103FB000022280F8422006E0022280F8402002E03F
:103FC000022280F84320026801F01F000121136AD9
:103FD00001FA00F023EA00011162116AB2F1A04F68
:103FE00040EA010010621DDA42F6FF30C4F201001F
:103FF000824233DD43F6FF70C4F20100824255DD98
:1040000044F20000C4F20100824267D044F2004052
:10401000C4F20100824261D044F60000C4F2010003
:104020005AE000BF42F6FF30C5F20100824227DDB0
:1040300043F6FF70C5F20100824243DD44F2000006
:10404000C5F20100824249D044F60000C5F20100E9
:10405000824243D044F200403CE000BF40F2FF7097
:10406000C4F20000824213DCB2F1804F00F08A807B
:1040700040F20040C4F20000824200F083808FE0F2
:1040800040F2FF70C5F2000082423DDD60E000BFFB
:1040900040F60000C4F20000824273D040F60040B7
:1040A000C4F2000082426DD07AE000BF42F60040C8
:1040B000C4F20100824211D043F20040C4F2010078
:1040C0000AE000BF42F60040C5F20100824205D07E
:1040D00043F20040C5F20100824261D1506C40F2CF
:1040E000FF71C5F2000140F400408A42506415DCC3
:1040F00043F6FF70C4F20100824237DD44F2000053
:10410000C4F2010082423DD0B2F1A04F3AD040F259
:104110000040C5F20000824234D041E042F6FF3058
:10412000C5F20100824213DD42F60040C5F20100F3
:10413000824227D044F20000C5F20100824221D021
:1041400043F20040C5F2010082421BD028E000BFCC
:1041500040F60000C5F20000824213D040F6004055
:10416000C5F2000082420DD01AE000BF42F60040C6
:10417000C4F20100824205D043F20040C4F20100C3
:1041800082420DD190680721C0F201010140062949
:104190004FF0000018BFB1F5803F01D180BD00BFD6
:1041A000106840F001001060002080BD90F884107D
:1041B000012904BF022070472421C0F8881001683B
:1041C0000A680B6822F0005223F001030B60002301
:1041D00043660A602021C0F8881080F884300020EF
:1041E00070470000D0F88C30202B1CBF0220704795
:1041F00010B5044600294FF0010018BF002A01D174
:1042000010BD00BFE06600202067204602F042FAA1
:104210000028F5D1E06E01281CBF012010BD2068E8
:1042200010210162206850E8000F216840F0100062
:1042300041E80002F2B1206850E8000F216840F028
:10424000100041E80002AAB1206850E8000F216880
:1042500040F0100041E8000262B1206850E8000F11
:10426000216840F0100041E800020020002A08BF49
:1042700010BDD7E7002010BD2DE9F04182B044F613
:1042800000070546C4F20007006807F57042904237
:104290000C4605D0B84223D002B0BDE8F08100BF83
:1042A00040F6F81640F27008C2F20006C2F20008AA
:1042B000304641462246642300F054FD40F60D206E
:1042C000019001A930460222642300F04BFD3046E4
:1042D00041464FF48062FFF785FF2868B842DBD182
:1042E00040F6F81540F27046C2F20005C2F2000630
:1042F000284631462246642300F034FD40F60D2066
:104300000090694628460222642300F02BFD40F607
:104310008C20C2F2000031464FF48062FFF762FF4A
:1043200002B0BDE8F08100007047000090F88420E2
:10433000012A04BF02207047B0B52422C0F88820AB
:104340000268D0F864E0D2F800C01368BEF1000F34
:1043500023F001031360936823F0606341EA0301D3
:10436000916019D09368916847F24C3E490FC0F6AE
:10437000000E47F254351EF80140C0F60005C3F3A5
:104380004263695CE400B4FBF1F11EF80340EB5CAE
:10439000E500B5FBF3F301E001210123A0F86A1069
:1043A0002021A0F86830C2F800C0C0F888100021B1
:1043B00080F884100020B0BD90F88420012A04BF4A
:1043C00002207047B0B52422C0F888200268D0F8D7
:1043D00064E0D2F800C01368BEF1000F23F00103BF
:1043E0001360936823F0604341EA0301916019D0A0
:1043F0009368916847F24C3E490FC0F6000E47F2B1
:1044000054351EF80140C0F60005C3F34263695CF1
:10441000E400B4FBF1F11EF80340EB5CE500B5FBF2
:10442000F3F301E001210123A0F86A102021A0F894
:104430006830C2F800C0C0F88810002180F88410ED
:104440000020B0BD704700007047000010B500BFED
:10445000016851E8001F026821F4907142E80013DE
:10446000DBB1016851E8001F026821F4907142E855
:10447000001393B1016851E8001F026821F49071A4
:1044800042E800134BB1016851E8001F026821F4B3
:10449000907142E80013002BDAD14FF6FE71CEF690
:1044A000FF7100BF026852E8022F03680A4043E828
:1044B0000224C4B1026852E8022F03680A4043E8AC
:1044C000022484B1026852E8022F03680A4043E8DC
:1044D000022444B1026852E8022F03680A4043E80C
:1044E0000224002CDED1C16E012924D1016851E8DB
:1044F000001F026821F0100142E80013DBB10168DF
:1045000051E8001F026821F0100142E8001393B146
:10451000016851E8001F026821F0100142E8001311
:104520004BB1016851E8001F026821F0100142E818
:104530000013002BDAD102689168490606D40021E5
:104540000F23A0F85E10816513621DE0D0F8801083
:1045500081B1044646F26540C0F60000C8660846D0
:10456000FCF7CAF8B0B1D4F88000C16E88470020CB
:1045700010BD00BF00210F23A0F85E1081651362FB
:10458000936943F0080393612022C0F88C20C16630
:10459000FFF75AFF002010BD7047000070B5026899
:1045A00040F62F04D369116896681C40202C0BD16B
:1045B00001F0200406F080552D1916D0416F61B32B
:1045C000BDE87040084700BF40F60F052B420CD0F5
:1045D0000125C1F2000506EA050C40F22015C0F2E3
:1045E00000450D4015EB0C0556D1C46EDD0615D502
:1045F000012C13D111F0100510D010211162916817
:10460000490655D4B0F85C10B0F85E20B0F85E30C2
:10461000002B18BF914240F00B8270BD1A0606D5E0
:1046200001F0800206F40006921940F0F3805A0669
:1046300040F1D88011F0400200F0D480016851E8C8
:10464000001F026821F0400142E80013DBB101685D
:1046500051E8001F026821F0400142E8001393B1C5
:10466000016851E8001F026821F0400142E8001390
:104670004BB1016851E8001F026821F0400142E897
:104680000013002BDAD12021C0F8881000218167A7
:10469000BDE8704000F03ABCDD0718BF11F480752A
:1046A00040F0CC809D0706F0010E00F1D380DCE0E5
:1046B000D0F8802011688B6CB0F85C4099B200296A
:1046C00000F09A80A14280F09780A0F85E30116DD2
:1046D00081297BD0016851E8001F026821F48071B4
:1046E00042E80013BBB3016851E8001F026821F4DF
:1046F000807142E8001373B3016851E8001F02683B
:1047000021F4807142E800132BB3016851E8001FC7
:10471000026821F4807142E80013002BDAD11AE01C
:10472000016851E8021F026821F0010142E802130A
:10473000DBB1016851E8021F026821F0010142E883
:10474000021393B1016851E8021F026821F00101D0
:1047500042E802134BB1016851E8021F026821F0E0
:10476000010142E80213002BDAD12021C0F88C109D
:104770000021C166016851E8001F026821F01001A4
:1047800042E80013DBB1016851E8001F026821F024
:10479000100142E8001393B1016851E8001F02685C
:1047A00021F0100142E800134BB1016851E8001FED
:1047B000026821F0100142E80013002BDAD1D0F892
:1047C000801004460846FBF743FF2046022101679C
:1047D000B0F85C10B0F85E20891A89B2BDE870406C
:1047E000FFF74ABD1A021DD511F080421AD0BDE86C
:1047F0007040FFF727BE00BF8C427FF40EAF126DF2
:10480000812A7FF40AAF02220267BDE87040FFF7F9
:1048100033BD00BF816F00293FF4FFAEBDE870409B
:10482000084700BFDA017FF5F8AEB1F1FF3FC8BF1E
:1048300070BDBDE87040FFF777BD00BF0125156270
:10484000D0F8905045F00105C0F890509D0706F053
:10485000010E0AD5BEF1000F07D002241462D0F871
:10486000904044F00404C0F890405C070AD5BEF1C3
:10487000000F07D004251562D0F8905045F00205CE
:10488000C0F890501D070CD501F0200555EA0C0525
:1048900007D008251562D0F8905045F00805C0F8FB
:1048A00090501D050BD511F0806508D04FF40065C0
:1048B0001562D0F8905045F02005C0F89050D0F81F
:1048C0009050002D3FF4A9AE9B060BD501F02001BE
:1048D00006F08053C91805D0416F19B104468847C6
:1048E00022682046D0F89010926801F0280102F06A
:1048F0004002891806D10446FFF74EFE0020C4F896
:10490000900070BD016851E8001F026821F49071A9
:1049100042E80013DBB1016851E8001F026821F48E
:10492000907142E8001393B1016851E8001F0268DA
:1049300021F4907142E800134BB1016851E8001F67
:10494000026821F4907142E80013002BDAD14FF68F
:10495000FE71CEF6FF7100BF026852E8022F0368B5
:104960000A4043E80226C6B1026852E8022F0368F3
:104970000A4043E8022686B1026852E8022F036823
:104980000A4043E8022646B1026852E8022F036853
:104990000A4043E80226002EDED1C16E012924D14F
:1049A000016851E8001F026821F0100142E800137D
:1049B000DBB1016851E8001F026821F0100142E8F4
:1049C000001393B1016851E8001F026821F0100143
:1049D00042E800134BB1016851E8001F026821F062
:1049E000100142E80013002BDAD12021C0F88C100E
:1049F0000021C166026841679168490640F19880CC
:104A0000D0F88010002900F0938046F21512C0F60D
:104A1000000204460846CA66FBF76EFE00283FF413
:104A2000FCADD4F88000C16EBDE87040084700BFFF
:104A3000891A00BF026852E8002F036822F49072BE
:104A400043E80026DEB1026852E8002F036822F432
:104A5000907243E8002696B1026852E8002F03687E
:104A600022F4907243E800264EB1026852E8002F0B
:104A7000036822F4907243E80026002EDAD14FF644
:104A8000FE72CEF6FF7200BF036853E8023F06686D
:104A9000134046E80235C5B1036853E8023F066893
:104AA000134046E8023585B1036853E8023F0668C3
:104AB000134046E8023545B1036853E8023F0668F3
:104AC000134046E80235002DDED12022C0F88C20AC
:104AD0000022C266426700BF026852E8002F0368E6
:104AE00022F0100243E80026DEB1026852E8002FEF
:104AF000036822F0100243E8002696B1026852E8EB
:104B0000002F036822F0100243E800264EB102682D
:104B100052E8002F036822F0100243E80026002E1E
:104B2000DAD1022289B20267BDE87040FFF7A4BB68
:104B3000BDE87040FFF730BD10B5D8B10446D0F8DD
:104B4000880028B9002084F88400204600F026F868
:104B50002420C4F888002068A16A0268002922F095
:104B6000010202601CBF204601F0AAF9204601F0B4
:104B70008BFC08B1012010BD2168486820F49040EA
:104B80004860886820F02A008860086840F00102C8
:104B900020460A60BDE8104001F006BAF0B5B7B093
:104BA0000446002502A8C0213695CDE93455CDE94B
:104BB0003255FBF76DFC206844F60001C4F2000199
:104BC000884265D043F60001C4F20101884240F0FA
:104BD000C2800026012702A803960297FDF764FB16
:104BE000002818BFFBF7C0FC40F68C40C4F20260FE
:104BF000816941F480418161816901F480410191C1
:104C00000199016841F001010160006832A900F0DA
:104C10000100019001984FF4C06032900220CDE96C
:104C20003306072036900020C4F202203596FCF7A8
:104C3000BBF940F670055021C2F200051820C4F2FD
:104C40000201C5E900104FF400004FF40022C5E94D
:104C500008072846C5E90266C5E90462C5E9066693
:104C6000C5E90A76C5E90C66FBF74CFE002818BFBB
:104C7000FBF77AFC28461021C4F88050EC65FBF75E
:104C80004FFD00284FF03D0418BFFBF76DFC5AE0C4
:104C90000420029002A80395FDF706FB002818BF28
:104CA000FBF762FC40F68C40C4F20260016900260A
:104CB00041F480210161016901F480210191019990
:104CC000016841F001010160006832A900F00100B3
:104CD00001900198A0203290022033900720369056
:104CE0000020C4F20220CDE93466FCF75DF95020C3
:104CF000C4F2020040F6E8058030C2F200051C2133
:104D000085E8430001204FF40022C5E90860C5E9A9
:104D10000A062846C5E90366C5E90526EE61C5E928
:104D20000C66FBF7EFFD002818BFFBF71DFC2846BB
:104D30001021C4F88050EC65FBF7F2FC4FF03F0403
:104D400008B1FBF711FC204600210022FCF726FBEE
:104D50002046FCF711FB37B0F0BD000070470000A3
:104D6000704700002DE9F0410446D0F88800202863
:104D70001CBF0220BDE8F08100294FF0010018BFE0
:104D8000002A01D1BDE8F0812068884681681D466F
:104D90001646090603D5816821F080018160002054
:104DA000C4F890002120C4F88800FCF725FAA4F884
:104DB0005460A4F85660A1680646B1F5805F02D140
:104DC0002069002864D047460020B4F856202168A6
:104DD000002A65D06A1C26D0002D51D0804600BF25
:104DE000C869000608D4FCF707FA801BA84200F245
:104DF000818021680868F3E717B117F8010B04E018
:104E000038F8020B00276FF35F208862B4F8560071
:104E10000138A4F85600B4F856000028E0D13FE06D
:104E2000CA69120609D4CA69120606D4CA691206EA
:104E30005CBFCA695FEA0262F2D51FB117F8012BA5
:104E400005E000BF30F8022B00276FF35F228A6273
:104E5000B4F85620013AA4F85620B4F85620002A97
:104E6000E1D11DE030F8022B00276FF35F228A6248
:104E7000B4F85620013AA4F85620B4F856207AB176
:104E8000CA69120634D5002FECD017F8012BEEE7D3
:104E900000274046B4F856202168002A7FF49AAFD4
:104EA000C86940061ED41DB3681C14D1C8694006E9
:104EB00026D4C869400623D4C869400620D4C869EE
:104EC00040064FF00000F1D50DE000BF20680168FA
:104ED000C069400614D4FCF78FF9801BA842F5D9AD
:104EE00008E000BF00202021C4F88810BDE8F08150
:104EF000FCF782F903202021C4F88810BDE8F08176
:104F000000202021C4F88810BDE8F081704700001F
:104F1000FEE7000080B582B040F68840C4F202602F
:104F20000168002241F0010101600068002100F0E9
:104F30000100019001981D20FCF730FA1D20FCF7BC
:104F40001BFA1E2000210022FCF728FA1E2002B0C6
:104F5000BDE88040FCF710BA2DE9F04387B0002788
:104F600040F68C400697CDE90477CDE90277C4F28C
:104F700002600168002441F0040101600168C4F28C
:104F8000022401F0040101910199016804F5006611
:104F900041F0010101600168002201F0010101916D
:104FA0000199016842F2100541F0020101600068B8
:104FB00042F2100100F00200019001983046FCF727
:104FC00015F920464FF4004100224FF40048FCF749
:104FD0000DF9029502AD4FF0010930462946CDE9A1
:104FE00003970597FBF7E0FF0220CDE90207204673
:104FF00029460497FBF7D8FF4FF480500290002019
:10500000C1F22100CDE9030720462946FBF7CCFF7A
:1050100020462946CDE90289CDE90477FBF7C4FF94
:10502000172001210022FCF7B9F91720FCF7A4F999
:1050300007B0BDE8F083000080B50020FCF7E2F87F
:10504000002818BFFBF790FAFCF7ECF8002808BF1F
:1050500080BDBDE88040FBF787BA000070B59EB008
:10506000002401A8342116941494CDE91244CDE90A
:105070001044CDE90E44FBF70BFA40F6601044F201
:105080000005C2F200009F21C4F2010544F620622F
:10509000C0E90051C0E90242C0E904448461FEF75E
:1050A000FBFE002818BFFBF75FFA40F66010C2F263
:1050B000000015A915941794FEF7E4FC002818BF0A
:1050C000FBF752FA60200E900020CDE90F00CDE9E9
:1050D0001100CDE9130040F66010C2F200000EA9E5
:1050E0000022FEF77FFD002818BFFBF73DFA40F6CF
:1050F0006010C2F200000EA90422FEF773FD002822
:1051000018BFFBF731FA40F6601400264FF4005048
:10511000C2F20004CDE9060601A920460596CDE9B4
:105120000366CDE901660D96FEF736FC002818BF30
:10513000FBF71AFA20681D96A842CDE91B661A965D
:1051400019961BD040F20041C4F20001884233D1CD
:1051500040F68C40C4F202600168C02241F00401B4
:1051600001600068022100F004001890189840F2D5
:105170000040C4F2022000F5806013E040F68C404D
:10518000C4F2026001684FF4404241F00201016044
:1051900000680E2100F002001890189840F20040BC
:1051A000C4F20220199202221A9200221D9119A91A
:1051B000CDE91B22FBF7F8FE1EB070BDB0B590B074
:1051C00040F6AC1040F200450024C2F200009F21DE
:1051D000C4F2000544F620620894CDE90544CDE907
:1051E0000344C0E90051C0E9024204618461FEF752
:1051F00053FE002818BFFBF7B7F940F6AC10C2F217
:10520000000007A907940994FEF73CFC002818BF8A
:10521000FBF7AAF9602000900020CDE9010004907E
:1052200040F6AC10C2F2000069460022FEF7DAFC3C
:10523000002818BFFBF798F940F6AC14C2F200043E
:10524000694620460422FEF7CDFC002818BFFBF774
:105250008BF9206844F20001C4F2010188424FF04A
:1052600000010F91CDE90D11CDE90B1118D0A84225
:1052700034D140F68C40C4F202600168C02241F093
:10528000040101600068022100F004000A900A98FD
:1052900040F20040C4F2022000F5806014E000BF3C
:1052A00040F68C40C4F2026001684FF4404241F085
:1052B0000201016000680E2100F002000A900A98C5
:1052C00040F20040C4F202200B9202220C92002213
:1052D0000F910BA9CDE90D22FBF766FE10B0B0BD12
:1052E00080B540F6F81043F600034FF4E131C2F206
:1052F00000000022C4F201034FF00C0CC0E90031A1
:10530000C0E90222C0E9042CC0E90622C0E9082253
:105310008262FFF711FC002818BFFBF725F940F661
:10532000F810C2F200000021FFF746F8002818BF6D
:10533000FBF71AF940F6F810C2F200000021FEF760
:10534000F5FF002818BFFBF70FF940F6F810C2F27E
:105350000000FEF72BFF002808BF80BDBDE880409D
:10536000FBF702B980B540F68C2044F600034FF4F9
:10537000E131C2F200000022C4F200034FF00C0C35
:10538000C0E90031C0E90222C0E9042CC0E90622CC
:10539000C0E908228262FFF7CFFB002818BFFBF7A5
:1053A000E3F840F68C20C2F200000021FFF704F879
:1053B000002818BFFBF7D8F840F68C20C2F2000096
:1053C0000021FEF7B3FF002818BFFBF7CDF840F629
:1053D0008C20C2F20000FEF7E9FE002808BF80BD65
:1053E000BDE88040FBF7C0B8FEE70000FEE7000024
:1053F0007047000070B540F62C46C4F2026656F8BD
:105400002C1C044621F0806046F82C0CFBF7F4FEBF
:10541000054600BF56F82C0C000105D5FBF7ECFE45
:10542000401B0228F6D95CE0306840F603718843DF
:1054300094E80E106FF0FF0505EB022208431043BD
:10544000306030690021C8F2800100EA010E591E67
:105450004FF47E42236902EB4C224FF4FE0505EB2C
:10546000034365696FF35F2192B24FF0FE4000EB9A
:105470000560714403F4FE03114400F0FE4019443A
:10548000084430613068A16920F00C0008433060A6
:10549000206A31680843306030684FF6F87120F0B8
:1054A000100030607069E269884340EAC2007061B0
:1054B000306840F01000306056F82C0C40F08060EE
:1054C00046F82C0CFBF798FE044600BF56F82C0C4F
:1054D000000144BF002070BDFBF78EFE001B0328B7
:1054E000F4D3032070BD000070B540F63046C4F21E
:1054F000026656F8301C044621F0805046F8300C05
:10550000FBF77AFE054600BF56F8300C800005D543
:10551000FBF772FE401B0228F6D95CE0306840F6CB
:105520000371884394E80E106FF0FF0505EB02222B
:1055300008431043306070690021C8F2800100EA1E
:10554000010E591E4FF47E42236902EB4C224FF4A8
:10555000FE0505EB034365696FF35F2192B24FF0DF
:10556000FE4000EB0560714403F4FE03114400F0BB
:10557000FE401944084470613068A16920F00C00B5
:1055800008433060206A31680843306030684FF665
:10559000F87120F010003060B069E269884340EA99
:1055A000C200B061306840F01000306056F8300C36
:1055B00040F0805046F8300CFBF71EFE044600BF5A
:1055C00056F8300C800044BF002070BDFBF714FE7D
:1055D000001B0328F4D3032070BD000070470000B7
:1055E0009FED0B1A40F6AC1031EE400AC2F20000FB
:1055F00080EE010A9FED071A006820EE010A9FED78
:10560000061A30EE010ABCEEC00A80ED0E0A7047A1
:10561000000034430000FA440000FA439FED0B1AE7
:1056200040F6AC1031EE400AC2F2000080EE010AF2
:105630009FED071A006820EE010A9FED061A30EE72
:10564000010ABCEEC00A80ED0D0A70470000344329
:105650000000FA440000FA439FED0A1A40F6601079
:1056600080EE010A9FED081AC2F20000006820EEE9
:10567000010A9FED061A30EE010ABCEEC00A80ED69
:105680000E0A7047000034430000FA440000FA4359
:105690009FED0A1A40F6601080EE010A9FED081A8D
:1056A000C2F20000006820EE010A9FED061A30EEFB
:1056B000010ABCEEC00A80ED0D0A704700003443B9
:1056C0000000FA440000FA4310B540F66014C2F23C
:1056D000000420460021FEF73FFC20460421FEF78F
:1056E0003BFC40F6AC14C2F2000420460021FEF759
:1056F00033FC20460421BDE81040FEF72DBC00001D
:10570000FBF79ABD4EF6885CCEF2000CDCF8001078
:10571000012241F47001CCF8001040F60041C4F2BF
:1057200002610A600022CA610A624A620B684FF68F
:10573000FF70CEF6F620184008608A62086820F4F0
:10574000802008604FF000600A654CF8800C7047BC
:1057500010B5D0F800E0B0F1A04F13DA40F6FF33F7
:10576000C4F20003984221DCB0F1804F42D040F2F5
:105770000043C4F2000398423CD040F60003C4F258
:10578000000335E040F6FF33C5F2000398421FDC0A
:10579000B0F1A04F2ED040F20043C5F20003984272
:1057A00028D040F60003C5F2000321E040F6004394
:1057B000C4F2000398421DD042F60043C4F2010334
:1057C000984217D043F20043C4F2010310E000BF37
:1057D00040F60043C5F2000398420BD043F2004369
:1057E000C5F20103984205D042F60043C5F2010319
:1057F000984204D14B682EF0700243EA020E42F642
:10580000FF3CB0F1A04FC5F2010C1DDA42F6FF33A8
:10581000C4F2010398422FDD43F6FF73C4F2010383
:1058200098425DDD44F20003C4F2010398426FD058
:1058300044F20043C4F20103984269D044F60003E5
:10584000C4F2010362E000BF604523DD43F6FF734D
:10585000C5F2010398424FDD44F20003C5F2010393
:10586000984255D044F60003C5F2010398424FD048
:1058700044F2004348E000BF40F2FF73C4F200036B
:10588000984215DCB0F1804F42D040F20043C4F2A0
:1058900000033BE040F2FF73C5F20003984213DCC3
:1058A000B0F1A04F34D040F20043C5F200032DE028
:1058B00040F60003C4F20003984229D040F60043AA
:1058C000C4F2000322E000BF40F60003C5F200036B
:1058D00098421DD040F60043C5F2000316E000BF19
:1058E00042F60043C4F20103984211D043F2004350
:1058F000C4F201030AE000BF42F60043C5F201030F
:10590000984205D043F20043C5F20103984204D106
:10591000CB682EF4407243EA020E0A688C684B6929
:105920006045C462826217DC43F6FF72C4F2010272
:10593000904227DD44F20002C4F20102904239D0C5
:1059400044F20042C4F20102904233D044F6000215
:10595000C4F201022CE000BF43F6FF72C5F201025F
:1059600090421BDD44F20002C5F20102904221D0B8
:1059700044F60002C5F2010290421BD044F20042FC
:1059800014E000BF42F60042C4F20102904211D07E
:1059900043F20042C4F201020AE000BF42F60042B4
:1059A000C5F20102904205D043F20042C5F2010265
:1059B000904201D10969016302682EF0800142F032
:1059C00004021943026001224261016010BD00001F
:1059D000F0B5026A036A22F0020223F001030362B7
:1059E0004368D0F818C08C6842F6FF36D1F800E062
:1059F0002243C5F2010643F6FF7443F6FF75B04239
:105A0000C5F20104C4F2010512DCA84222DD44F211
:105A10000007C4F20107B84234D044F20047C4F290
:105A20000107B8422ED044F60007C4F2010727E070
:105A3000A0421BDD44F20007C5F20107B84221D0A5
:105A400044F60007C5F20107B8421BD044F20047F4
:105A500014E000BF42F60047C4F20107B84211D07B
:105A600043F20047C4F201070AE000BF42F60047D4
:105A7000C5F20107B84205D043F20047C5F201075D
:105A8000B84207D1076A22F0080227F0040707622C
:105A9000CF683A43B04213DCA84223DD44F200044D
:105AA000C4F20104A04235D044F20044C4F201041F
:105AB000A0422FD044F60004C4F2010428E000BF45
:105AC000A0421BDD44F20004C5F20104A04221D033
:105AD00044F60004C5F20104A0421BD044F2004485
